:020000040800F2
:100000000028002079150008091500080F150008C0
:10001000151500081B150008211500080000000038
:10002000000000000000000000000000271500088C
:1000300033150008000000003F1500084B150008AC
:10004000C1150008C1150008C1150008C115000838
:10005000C1150008C1150008C1150008C115000828
:10006000C1150008C1150008C1150008C115000818
:10007000C1150008C1150008C1150008C115000808
:10008000C1150008C1150008C1150008C1150008F8
:10009000C1150008C1150008C1150008C1150008E8
:1000A000C1150008C1150008C1150008C1150008D8
:1000B00059150008C115000800000000C11500080E
:1000C000C11500080000000000000000C115000874
:1000D00000000000C1150008C11500080000000064
:1000E000C1150008C1150008C11500080000000076
:1000F0000000000000000000000000000000000000
:0C01000000000000000000005FF808F1A3
:10010C0010B5054C237833B9044B13B10448AFF345
:10011C0000800123237010BD60000020000000004F
:10012C00082C000808B5034B1BB103490348AFF377
:10013C00008008BD0000000064000020082C0008AE
:10014C0080B483B000AF7860094A7B6852F82330E2
:10015C00012B06D1064A7B68002142F823100123AB
:10016C0000E0002318460C37BD4680BC704700BF2A
:10017C007C00002080B483B000AF7860044A7B68B8
:10018C00012142F8231000BF0C37BD4680BC7047DC
:10019C007C00002080B582B000AF00237B60A6E01D
:1001AC00574A7B6852F8232056497B6841F8232034
:1001BC00554A7B6852F8232051497B6841F823202B
:1001CC007B68002B0AD10221504801F0DFFC03466A
:1001DC0019464D4A7B6842F823101AE07B68012BC4
:1001EC000AD10421494801F0D1FC03461946464A7C
:1001FC007B6842F823100CE07B68022B09D10821A4
:10020C00424801F0C3FC034619463F4A7B6842F85A
:10021C0023103B4A7B6852F823203A497B6851F8FB
:10022C0023309A4259D1364A7B6852F823203649FA
:10023C007B6851F823309A424FD1354A7B6852F88B
:10024C00232031497B6851F823309A422BD02E4A17
:10025C007B6852F823202E497B6841F823202A4AD8
:10026C007B6852F82330002B3DD17868FFF782FF72
:10027C00284A7B6852F82330002B0AD1264B1B6886
:10028C004FF4FA6292FBF3F224497B6841F8232085
:10029C0029E0214B1B68FA2292FBF3F21F497B6881
:1002AC0041F823201FE01D4A7B6852F823305A1E68
:1002BC001A497B6841F82320184A7B6852F823308E
:1002CC00002B10D1124A7B68012142F82310114AED
:1002DC007B68012142F8231005E00E4A7B6800215F
:1002EC0042F8231000E000BF7B6801337B607B6821
:1002FC00022B7FF755AF00BF00BF0837BD4680BD4E
:10030C000C00002000000020180000200008014014
:10031C002400002088000020100100209400002000
:10032C0080B586B000AF7860304A07F10C0307CA7D
:10033C0003C31A8007F10C027B6813441B78FB750E
:10034C00FB7D03F00103BB75BB7D1A4601212848D8
:10035C0001F033FCFB7D5B08DBB203F00103BB75E2
:10036C00BB7D1A460221224801F027FCFB7D9B082D
:10037C00DBB203F00103BB75BB7D1A4604211C489C
:10038C0001F01BFCFB7DDB08DBB203F00103BB754A
:10039C00BB7D1A460821164801F00FFCFB7D1B099A
:1003AC00DBB203F00103BB75BB7D1A46102110486C
:1003BC0001F003FCFB7D5B09DBB203F00103BB75B1
:1003CC00BB7D1A4620210A4801F0F7FBFB7D9B09F7
:1003DC00DBB203F00103BB75BB7D1A464021044818
:1003EC0001F0EBFB00BF1837BD4680BD202C000888
:1003FC00000C014080B582B000AF7860454A7B6844
:10040C0052F823301846FFF78BFF7B68032B7BD801
:10041C0001A252F823F000BF350400086D04000857
:10042C00A5040008DD0400083B4B01221A600022E1
:10043C004FF48061394801F0C0FB01224FF4006198
:10044C00364801F0BAFB01224FF48051334801F0D9
:10045C00B4FB01224FF40051304801F0AEFB54E0E4
:10046C002D4B02221A6001224FF480612B4801F0BF
:10047C00A4FB00224FF40061284801F09EFB0122EE
:10048C004FF48051254801F098FB01224FF40051A4
:10049C00224801F092FB38E01F4B03221A60012224
:1004AC004FF480611D4801F088FB01224FF400617C
:1004BC001A4801F082FB00224FF48051174801F0DA
:1004CC007CFB01224FF40051144801F076FB1CE038
:1004DC00114B00221A6001224FF480610F4801F089
:1004EC006CFB01224FF400610C4801F066FB012209
:1004FC004FF48051094801F060FB00224FF4005189
:10050C00064801F05AFB00E000BF00BF0837BD46AB
:10051C0080BD00BF30000020A0000020000801407A
:10052C0080B400AF954B1A68954B1B689A421FDC40
:10053C00934B1A68914B1B68D31A924A82FB031295
:10054C009210DB17D31A904A13608D4B1A688B4BA1
:10055C001B68D11A8B4B83FB01239A10CB17D21A31
:10056C0013469B0013445B00CA1A874B5A6059E030
:10057C00834B1A68854B1B681A44804B1B689A4244
:10058C0025DB7F4B1A68814B1B681A447B4B1B681D
:10059C00D31A7C4A82FB03129210DB17D31A7A4AC5
:1005AC001360774B1A68794B1B681A44734B1B68A2
:1005BC00D11A744B83FB01239A10CB17D21A134612
:1005CC009B0013445B00CA1A6F4B5A602AE06C4BB9
:1005DC001A686E4B1B681A446D4B1B681A44674BA8
:1005EC001B68D31A674A82FB03129210DB17D31ACB
:1005FC00654A1360624B1A68644B1B681A44644B5F
:10060C001B681A445D4B1B68D11A5E4B83FB01239C
:10061C009A10CB17D21A13469B0013445B00CA1ACC
:10062C00594B5A60554B1B680133544A1360544B59
:10063C001A68574B1B681A44544B1B681A444F4B8F
:10064C001B689A4202DA4D4B01221A60514B1A6810
:10065C004E4B1B689A421FDC4C4B1A684D4B1B6867
:10066C00D31A484A82FB03129210DB17D31A464A5C
:10067C009360464B1A68474B1B68D11A414B83FB5E
:10068C0001239A10CB17D21A13469B0013445B001C
:10069C00CA1A3D4BDA6059E03D4B1A683B4B1B685C
:1006AC001A443C4B1B689A4225DB394B1A68374B72
:1006BC001B681A44374B1B68D31A324A82FB03124D
:1006CC009210DB17D31A304A9360314B1A682F4BB8
:1006DC001B681A442F4B1B68D11A2A4B83FB01232E
:1006EC009A10CB17D21A13469B0013445B00CA1AFC
:1006FC00254BDA602AE0224B1A68244B1B681A44FB
:10070C00234B1B681A44234B1B68D31A1D4A82FBCC
:10071C0003129210DB17D31A1B4A9360184B1A68FA
:10072C001A4B1B681A441A4B1B681A44194B1B684A
:10073C00D11A144B83FB01239A10CB17D21A1346F0
:10074C009B0013445B00CA1A0F4BDA60114B1B68F9
:10075C000133104A13600A4B1A680D4B1B681A447C
:10076C000A4B1B681A440B4B1B689A4202DA094B62
:10077C0001221A6000BFBD4680BC704740000020BB
:10078C00480000206766666630000020500000209C
:10079C004C0000204400002080B400AF114B00221C
:1007AC001A60104B02225A600F4B1B680F4A82FBD7
:1007BC0003129210DB17D31A0A4A93600A4B19687A
:1007CC000A4B83FB01239A10CB17D21A13469B00BA
:1007DC0013445B00CA1A034BDA6000BFBD4680BCF1
:1007EC00704700BF30000020480000206766666636
:1007FC0080B400AF114B00221A60104B03225A60D8
:10080C000F4B1B680F4A82FB03129210DB17D31A93
:10081C000A4A93600A4B19680A4B83FB01239A100E
:10082C00CB17D21A13469B0013445B00CA1A034B16
:10083C00DA6000BFBD4680BC704700BF30000020AE
:10084C004C0000206766666680B400AF114B002236
:10085C001A60104B04225A600F4B1B680F4A82FB24
:10086C0003129210DB17D31A0A4A93600A4B1968C9
:10087C000A4B83FB01239A10CB17D21A13469B0009
:10088C0013445B00CA1A034BDA6000BFBD4680BC40
:10089C00704700BF3000002050000020676666667D
:1008AC0080B500AFBE4B1B682A2B00F2398401A225
:1008BC0052F823F06D09000875090008490C00086E
:1008CC00D70D0008930F00082D1100082D110008FA
:1008DC002D1100082D1100082D1100082D110008F4
:1008EC00090A00089B0A00081B0B0008CD0B000826
:1008FC002D1100082D1100082D1100082D110008D4
:10090C002D1100082D110008C30C0008490D00081A
:10091C002D1100082D1100082D1100082D110008B3
:10092C002D1100082D1100082D1100082D110008A3
:10093C00510E0008F10E00082D1100082D110008B1
:10094C002D1100082D1100082D1100082D11000883
:10095C002D1100082D1100080D1000089910000829
:10096C008F4B01221A60F0E38D4B0B221A60002290
:10097C0010218C4801F021F901222021894801F035
:10098C001CF901224021874801F017F9012280212E
:10099C00844801F012F901224FF48071814801F072
:1009AC000CF900224FF400717E4801F006F97E4BE1
:1009BC0001221A607D4B01221A607D4B00221A60C5
:1009CC00FFF7AEFD7A4B1B681846FFF713FD794B0A
:1009DC001B684FF47A7202FB03F31946002000F0F7
:1009EC00D1FC4FF47A71012000F0CCFCFA210220EA
:1009FC0000F0C8FC032000F0E3FCA6E30022102169
:100A0C00684801F0DAF801222021664801F0D5F897
:100A1C0001228021634801F0D0F800224FF40071CC
:100A2C00604801F0CAF8644B1B68012B0CD15C4B7D
:100A3C000C221A60614B1B684FF47A7202FB03F3B1
:100A4C001946002000F09EFC5B4B5B68012B06D125
:100A5C00FFF766FD4FF47A71012000F093FC564BC2
:100A6C009B68012B08D1524B1B681846FFF7C2FC40
:100A7C00FA21022000F086FC0020FFF761FB034600
:100A8C00012B40F04F83464B02221A604AE30022AE
:100A9C004FF48071434801F090F801224FF400713B
:100AAC00404801F08AF8444B1B68012B0CD13C4B9D
:100ABC000D221A603F4B1B684FF47A7202FB03F352
:100ACC001946002000F05EFC3B4B5B68012B06D105
:100ADC00FFF726FD4FF47A71012000F053FC364BE2
:100AEC009B68012B08D1324B1B681846FFF782FC20
:100AFC00FA21022000F046FC0020FFF721FB034600
:100B0C00012B40F01183264B02221A600CE30122C8
:100B1C001021244801F051F801224FF48071214832
:100B2C0001F04BF8002280211E4801F046F800220B
:100B3C0040211C4801F041F81F4B1B68012B0CD1C4
:100B4C00174B0E221A601D4B1B684FF47A7202FB76
:100B5C0003F31946002000F015FC174B5B68012BC2
:100B6C0006D1FFF7DDFC4FF47A71012000F00AFC8E
:100B7C00114B9B68012B08D10D4B1B681846FFF7D6
:100B8C0039FCFA21022000F0FDFB0020FFF7D8FA17
:100B9C000346012B40F0CA82014B02221A60C5E2C7
:100BAC00A400002000080140400000204400002068
:100BBC00A000002050000020B80000204C000020B5
:100BCC0001224021BD4800F0F8FF00222021BB4843
:100BDC0000F0F3FFBA4B1B68012B0CD1B94B0B2265
:100BEC001A60B94B1B684FF47A7202FB03F3194677
:100BFC00002000F0C7FBB24B5B68012B06D1FFF75E
:100C0C008FFC4FF47A71012000F0BCFBAC4B9B685D
:100C1C00012B08D1AD4B1B681846FFF7EBFBFA21F3
:100C2C00022000F0AFFB0020FFF78AFA0346012BED
:100C3C0040F07E82A34B02221A6079E2002210213E
:100C4C009E4800F0BAFF002280219C4800F0B5FFBE
:100C5C0001222021994800F0B0FF01224FF480714D
:100C6C00964800F0AAFF01224021944800F0A5FF0D
:100C7C0001224FF40071914800F09FFF934B00222A
:100C8C001A60FFF789FD914B1B681846FFF7B2FB02
:100C9C00FA21022000F076FB4FF4FA71032000F0E9
:100CAC0071FB002000F08CFB012000F089FB854BD0
:100CBC0015221A6049E2824BDB68012B0CD14FF4F0
:100CCC00FA71032000F05EFB10217C4800F08DFFD0
:100CDC0080217A4800F089FF794B9B68012B0AD15F
:100CEC00FA21022000F04EFBFFF756FD774B1B68F4
:100CFC001846FFF77FFB0020FFF722FA0346012B73
:100D0C0002D1704B03221A600120FFF719FA034637
:100D1C00012B40F00F826B4B16221A606C4B1B6838
:100D2C00622B05DD6B4B1B680133694A136001E2D2
:100D3C00674B1B680133664A1360FBE1604BDB6851
:100D4C00012B0CD14FF4FA71032000F01BFB102186
:100D5C005A4800F04AFF8021584800F046FF584B93
:100D6C009B68012B0AD1FA21022000F00BFBFFF744
:100D7C0013FD564B1B681846FFF73CFB0120FFF791
:100D8C00DFF90346012B0ED1514B1B68622B05DD9D
:100D9C00504B1B6801334E4A136004E04C4B1B68EC
:100DAC0001334B4A13600220FFF7CAF90346012BAB
:100DBC0040F0C281434B15221A60454B1A68454BD3
:100DCC001B68D31A404A1360B6E1012210213B483C
:100DDC0000F0F3FE01228021384800F0EEFE0022E4
:100DEC002021364800F0E9FE00224FF48071334890
:100DFC0000F0E3FE01224021304800F0DEFE01222B
:100E0C004FF400712D4800F0D8FE304B00221A60D0
:100E1C00FFF7C2FC2D4B1B681846FFF7EBFAFA21C3
:100E2C00022000F0AFFA4FF4FA71032000F0AAFA96
:100E3C00002000F0C5FA012000F0C2FA214B1F225D
:100E4C001A6082E11E4BDB68012B0DD14FF4FA7155
:100E5C00032000F097FA2021184800F0C6FE4FF44A
:100E6C008071164800F0C1FE154B9B68012B0AD10E
:100E7C00FA21022000F086FAFFF7BAFC134B1B682C
:100E8C001846FFF7B7FA0020FFF75AF90346012B73
:100E9C0002D10C4B04221A600120FFF751F90346D2
:100EAC00012B40F04B81074B20221A60094B1B6829
:100EBC00042B11DD074B01221A603FE100080140B1
:100ECC00B8000020A400002050000020A00000204A
:100EDC00480000204C0000209D4B1B6801339C4AAD
:100EEC0013602BE19B4BDB68012B0DD14FF4FA7196
:100EFC00032000F047FA2021974800F076FE4FF4CB
:100F0C008071954800F071FE924B9B68012B0AD1C1
:100F1C00FA21022000F036FAFFF76AFC8F4B1B68AF
:100F2C001846FFF767FA0120FFF70AF90346012B71
:100F3C000CD1874B1B68042B03DD854B01221A60F7
:100F4C0004E0834B1B680133814A13600220FFF7D6
:100F5C00F7F80346012B40F0F380814B1F221A60F7
:100F6C00804B1A687A4B1B689A4204DC784B1B68DE
:100F7C0001337C4A13607B4B1A68754B1B68D31A80
:100F8C00794A1360DCE001221021734800F015FE51
:100F9C0001228021704800F010FE012220216E48B1
:100FAC0000F00BFE01224FF480716B4800F005FE3F
:100FBC0000224021684800F000FE00224FF400712E
:100FCC00654800F0FAFD654B00221A60FFF7E4FB60
:100FDC00624B1B681846FFF70DFAFA21022000F04D
:100FEC00D1F94FF4FA71032000F0CCF9002000F095
:100FFC00E7F9012000F0E4F9594B29221A60A4E02A
:10100C00544BDB68012B0DD14FF4FA71032000F027
:10101C00B9F94021504800F0E8FD4FF400714E48FA
:10102C0000F0E3FD4B4B9B68012B0AD1FA21022007
:10103C0000F0A8F9FFF708FC484B1B681846FFF7AF
:10104C00D9F90020FFF77CF80346012B02D1444B61
:10105C0001221A600120FFF773F80346012B71D1AE
:10106C003F4B2A221A603F4B1A68394B1B68D21A25
:10107C003D4B1B689A4203DC3B4B01221A6061E03A
:10108C00394B1B680133384A13605BE0314BDB682A
:10109C00012B0DD14FF4FA71032000F073F94021AC
:1010AC002D4800F0A2FD4FF400712B4800F09DFD7F
:1010BC00284B9B68012B0AD1FA21022000F062F91F
:1010CC00FFF7C2FB254B1B681846FFF793F901206D
:1010DC00FFF736F80346012B11D1224B1A681C4B33
:1010EC001B68D21A204B1B689A4203DC1E4B012250
:1010FC001A6004E01C4B1B6801331B4A136002206E
:10110C00FFF71EF80346012B1ED1154B29221A603E
:10111C00154B1A680E4B1B681344124A136013E0EC
:10112C0000BF12E000BF10E000BF0EE000BF0CE0FB
:10113C0000BF0AE000BF08E000BF06E000BF04E00B
:10114C0000BF02E000BF00E000BF00BF80BD00BFD9
:10115C004C000020B800002000080140A000002036
:10116C00A4000020480000205000002080B500AFF3
:10117C0000F022FA00F00CF800F092F800F044F8BD
:10118C00024801F077F9FFF78BFBFCE7C800002061
:10119C0080B590B000AF07F1180328220021184643
:1011AC0001F024FD3B1D00221A605A609A60DA603F
:1011BC001A610223BB610123BB621023FB62002373
:1011CC007B6307F11803184600F028FD0346002B3B
:1011DC0001D000F0D1F80F237B600023BB6000230B
:1011EC00FB6000233B6100237B613B1D0021184603
:1011FC0000F094FF0346002B01D000F0BDF800BFB7
:10120C004037BD4680BD000080B586B000AF07F109
:10121C00080300221A605A609A60DA603B4600228A
:10122C001A605A601D4B4FF080421A601B4B41F6FE
:10123C003F725A60194B00229A60184B0922DA60EF
:10124C00164B00221A61154B00229A61134801F0CB
:10125C00C1F80346002B01D000F08EF84FF48053F8
:10126C00BB6007F1080319460C4801F057FA034616
:10127C00002B01D000F080F800233B6000237B6042
:10128C003B461946054801F023FC0346002B01D0D0
:10129C0000F072F800BF1837BD4680BDC8000020B2
:1012AC0080B586B000AF07F1080300221A605A60BF
:1012BC009A60DA60274B9B69264A43F004039361DA
:1012CC00244B9B6903F004037B607B68214B9B6977
:1012DC00204A43F0080393611E4B9B6903F00803FB
:1012EC003B603B68002243F6F0711B4800F065FC44
:1012FC0000227F21194800F060FC0E23BB60002304
:10130C00FB6001233B6107F108031946124800F00A
:10131C00C3FA43F6F073BB600123FB6000233B610F
:10132C0002237B6107F1080319460B4800F0B4FA5D
:10133C007F23BB600123FB6000233B6102237B61A5
:10134C0007F108031946054800F0A6FA00BF183744
:10135C00BD4680BD0010024000080140000C014059
:10136C0080B582B000AF786000F042F8FEF712FF53
:10137C0000BF0837BD4680BD80B400AF72B600BF59
:10138C00FEE7000080B483B000AF78603960094B91
:10139C001B683A6892FBF3F207497B6841F82320FB
:1013AC00064A7B68002142F8231000BF0C37BD466B
:1013BC0080BC704710010020A8000020B80000205D
:1013CC0080B483B000AF7860074A7B68002142F894
:1013DC002310064A7B68002142F8231000BF0C370B
:1013EC00BD4680BC704700BFA8000020B80000209C
:1013FC0080B483B000AF00237B601CE0124A7B6892
:10140C0052F82330002B13DD0F4A7B6852F823303F
:10141C005A1E0D497B6841F823200B4A7B6852F811
:10142C002330002B04DC094A7B68012142F823108D
:10143C007B6801337B607B68032BDFDD00BF00BF63
:10144C000C37BD4680BC7047A8000020B8000020B7
:10145C0080B485B000AF154B9B69144A43F001036F
:10146C009361124B9B6903F00103BB60BB680F4B8C
:10147C00DB690E4A43F08053D3610C4BDB6903F0FC
:10148C0080537B607B680A4B5B68FB60FB6823F0D6
:10149C00E063FB60FB6843F08063FB60044AFB681D
:1014AC00536000BF1437BD4680BC7047001002402B
:1014BC000000014080B584B000AF78607B681B6889
:1014CC00B3F1804F13D10C4BDB690B4A43F0010392
:1014DC00D361094BDB6903F00103FB60FB6800225D
:1014EC0000211C2000F0A1F91C2000F0BAF900BF6B
:1014FC001037BD4680BD00BF0010024080B400AF65
:10150C00FEE780B400AFFEE780B400AFFEE780B426
:10151C0000AFFEE780B400AFFEE780B400AF00BFC1
:10152C00BD4680BC704780B400AF00BFBD4680BCD8
:10153C00704780B400AF00BFBD4680BC704780B51B
:10154C0000AF00F07FF800BF80BD000080B500AF99
:10155C00024800F0DBFF00BF80BD00BFC8000020C8
:10156C0080B400AF00BFBD4680BC7047FFF7F8FFEA
:10157C000B480C490C4A002302E0D458C4500433E5
:10158C00C4188C42F9D3094A094C002301E01360BA
:10159C000432A242FBD301F005FBFFF7E7FD7047D5
:1015AC000000002060000020582C00086000002083
:1015BC0018010020FEE7000080B500AF084B1B6847
:1015CC00074A43F010031360032000F023F90F20A7
:1015DC0000F008F8FFF73CFF0023184680BD00BF61
:1015EC000020024080B582B000AF7860124B1A68C0
:1015FC00124B1B7819464FF47A73B3FBF1F3B2FB21
:10160C00F3F3184600F03BF90346002B01D00123FD
:10161C000EE07B680F2B0AD8002279684FF0FF3060
:10162C0000F003F9064A7B681360002300E00123F5
:10163C0018460837BD4680BD540000205C000020D1
:10164C005800002080B400AF054B1B781A46054BA0
:10165C001B681344034A136000BFBD4680BC70472F
:10166C005C0000201401002080B400AF024B1B680A
:10167C001846BD4680BC70471401002080B485B06C
:10168C0000AF78607B6803F00703FB600C4BDB68F2
:10169C00BB60BA684FF6FF031340BB60FB681A02CD
:1016AC00BB68134343F0BF6343F40033BB60044A8D
:1016BC00BB68D36000BF1437BD4680BC704700BF09
:1016CC0000ED00E080B400AF044BDB681B0A03F0B4
:1016DC0007031846BD4680BC704700BF00ED00E014
:1016EC0080B483B000AF0346FB7197F90730002B31
:1016FC000BDBFB7903F01F02064997F907305B09F6
:10170C00012000FA02F241F8232000BF0C37BD463D
:10171C0080BC704700E100E080B483B000AF0346AA
:10172C003960FB7197F90730002B0ADB3B68DAB2A2
:10173C000C4997F907301201D2B20B4483F80023FD
:10174C000AE03B68DAB20849FB7903F00F03043B6B
:10175C001201D2B20B441A7600BF0C37BD4680BCC6
:10176C00704700BF00E100E000ED00E080B489B0FC
:10177C0000AFF860B9607A60FB6803F00703FB61A7
:10178C00FB69C3F10703042B28BF0423BB61FB696E
:10179C000433062B02D9FB69033B00E000237B6179
:1017AC004FF0FF32BB6902FA03F3DA43BB681A400D
:1017BC007B699A404FF0FF317B6901FA03F3D943FF
:1017CC007B680B40134318462437BD4680BC7047DA
:1017DC0080B582B000AF78607B68013BB3F1807F4D
:1017EC0001D301230FE00A4A7B68013B53600F21B0
:1017FC004FF0FF30FFF790FF054B00229A60044B2F
:10180C0007221A60002318460837BD4680BD00BF6A
:10181C0010E000E080B582B000AF78607868FFF728
:10182C002DFF00BF0837BD4680BD80B586B000AF28
:10183C000346B9607A60FB7300237B61FFF742FFBC
:10184C0078617A68B9687869FFF790FF024697F972
:10185C000F3011461846FFF75FFF00BF1837BD4623
:10186C0080BD80B582B000AF0346FB7197F907309D
:10187C001846FFF735FF00BF0837BD4680BD80B561
:10188C0082B000AF78607868FFF7A2FF0346184675
:10189C000837BD4680BD000080B48BB000AF7860C7
:1018AC00396000237B6200233B6248E101227B6AA2
:1018BC0002FA03F3FB613B681B68FA691340BB61D6
:1018CC00BA69FB699A4240F037813B685B68A34A6E
:1018DC0093425ED0A14A934275D8A14A934258D004
:1018EC009F4A93426FD89F4A934252D09D4A93424B
:1018FC0069D89D4A93424CD09B4A934263D89B4AE9
:10190C00934246D0994A93425DD8122B2AD8122B77
:10191C0059D801A252F823F09F1900087919000830
:10192C008B190008CD190008D3190008D319000829
:10193C00D3190008D3190008D3190008D3190008CB
:10194C00D3190008D3190008D3190008D3190008BB
:10195C00D3190008D3190008D319000881190008FD
:10196C0095190008824A934213D02CE03B68DB683F
:10197C003B6229E03B68DB6804333B6224E03B6854
:10198C00DB6808333B621FE03B68DB680C333B626F
:10199C001AE03B689B68002B02D104233B6213E0E6
:1019AC003B689B68012B05D108233B627B68FA6975
:1019BC001A6109E008233B627B68FA695A6103E00B
:1019CC0000233B6200E000BFBB69FF2B01D87B68A2
:1019DC0001E07B6804337B61BB69FF2B02D87B6A17
:1019EC009B0002E07B6A083B9B003B617B691A68A9
:1019FC000F213B6901FA03F3DB431A40396A3B6957
:101A0C0001FA03F31A437B691A603B685B6803F0C5
:101A1C008053002B00F09080564B9B69554A43F045
:101A2C0001039361534B9B6903F00103BB60BB68DB
:101A3C00514A7B6A9B08023352F82330FB607B6A65
:101A4C0003F003039B000F2202FA03F3DB43FA6853
:101A5C001340FB607B68494A93420DD07B68484A2F
:101A6C00934207D07B68474A934201D1022304E09A
:101A7C00032302E0012300E000237A6A02F0030250
:101A8C0092009340FA681343FB603B497B6A9B08C6
:101A9C000233FA6841F823203B685B6803F4801337
:101AAC00002B06D0384B9A683749BB6913438B60BF
:101ABC0006E0354B9A68BB69DB43334913408B60B6
:101ACC003B685B6803F40013002B06D02E4BDA68DE
:101ADC002D49BB691343CB6006E02B4BDA68BB691D
:101AEC00DB4329491340CB603B685B6803F400334C
:101AFC00002B06D0244B5A682349BB6913434B6017
:101B0C0006E0214B5A68BB69DB431F4913404B600D
:101B1C003B685B6803F48033002B06D01A4B1A68C1
:101B2C001949BB6913430B6006E0174B1A68BB6974
:101B3C00DB43154913400B607B6A01337B623B68C6
:101B4C001A687B6A22FA03F3002B7FF4AFAE00BF56
:101B5C0000BF2C37BD4680BC704700BF0000321060
:101B6C0000003110000022100000211000001210A3
:101B7C00000011100010024000000140000801405C
:101B8C00000C0140001001400004014080B485B0FD
:101B9C0000AF78600B467B807B689A687B8813402B
:101BAC00002B02D00123FB7301E00023FB73FB7BB2
:101BBC0018461437BD4680BC704780B483B000AF64
:101BCC0078600B467B8013467B707B78002B03D0B0
:101BDC007A887B681A6103E07B881A047B681A6137
:101BEC0000BF0C37BD4680BC704780B485B000AFD9
:101BFC0078600B467B807B68DB68FB607A88FB68CF
:101C0C0013401A04FB68D9437B880B401A437B684A
:101C1C001A6100BF1437BD4680BC704780B586B0D2
:101C2C0000AF78607B68002B01D101236CE27B68EC
:101C3C001B6803F00103002B00F08780924B5B685C
:101C4C0003F00C03042B0CD08F4B5B6803F00C03DC
:101C5C00082B12D18C4B5B6803F48033B3F5803FB7
:101C6C000BD1894B1B6803F40033002B6CD07B68C1
:101C7C005B68002B68D1012346E27B685B68B3F597
:101C8C00803F06D1804B1B687F4A43F4803313603E
:101C9C002EE07B685B68002B0CD17B4B1B687A4A6F
:101CAC0023F480331360784B1B68774A23F480232A
:101CBC0013601DE07B685B68B3F5A02F0CD1724BF1
:101CCC001B68714A43F4802313606F4B1B686E4A88
:101CDC0043F4803313600BE06B4B1B686A4A23F4AC
:101CEC0080331360684B1B68674A23F480231360AE
:101CFC007B685B68002B13D0FFF7B6FC386108E0FB
:101D0C00FFF7B2FC02463B69D31A642B01D90323BB
:101D1C00FAE15D4B1B6803F40033002BF0D014E0A8
:101D2C00FFF7A2FC386108E0FFF79EFC02463B6916
:101D3C00D31A642B01D90323E6E1534B1B6803F43C
:101D4C000033002BF0D100E000BF7B681B6803F070
:101D5C000203002B63D04C4B5B6803F00C03002B8D
:101D6C000BD0494B5B6803F00C03082B1CD1464B82
:101D7C005B6803F48033002B16D1434B1B6803F0D4
:101D8C000203002B05D07B681B69012B01D00123BA
:101D9C00BAE13D4B1B6823F0F8027B685B69DB0002
:101DAC00394913430B603AE07B681B69002B20D048
:101DBC00364B01221A60FFF757FC386108E0FFF739
:101DCC0053FC02463B69D31A022B01D903239BE136
:101DDC002D4B1B6803F00203002BF0D02A4B1B6821
:101DEC0023F0F8027B685B69DB00274913430B6027
:101DFC0015E0264B00221A60FFF736FC386108E02C
:101E0C00FFF732FC02463B69D31A022B01D903239C
:101E1C007AE11D4B1B6803F00203002BF0D17B68A9
:101E2C001B6803F00803002B3AD07B689B69002BDE
:101E3C0019D0174B01221A60FFF716FC386108E025
:101E4C00FFF712FC02463B69D31A022B01D903237C
:101E5C005AE10D4B5B6A03F00203002BF0D001201A
:101E6C0000F09AFA1CE00A4B00221A60FFF7FCFB08
:101E7C0038610FE0FFF7F8FB02463B69D31A022BDF
:101E8C0008D9032340E100BF001002400000424289
:101E9C00800442429E4B5B6A03F00203002BE9D1A3
:101EAC007B681B6803F00403002B00F0A680002362
:101EBC00FB75974BDB6903F08053002B0DD1944BD2
:101ECC00DB69934A43F08053D361914BDB6903F098
:101EDC008053BB60BB680123FB758E4B1B6803F4FE
:101EEC008073002B18D18B4B1B688A4A43F4807388
:101EFC001360FFF7B9FB386108E0FFF7B5FB02464A
:101F0C003B69D31A642B01D90323FDE0814B1B6879
:101F1C0003F48073002BF0D07B68DB68012B06D1B7
:101F2C007B4B1B6A7A4A43F0010313622DE07B68FA
:101F3C00DB68002B0CD1764B1B6A754A23F001032E
:101F4C001362734B1B6A724A23F0040313621CE086
:101F5C007B68DB68052B0CD16D4B1B6A6C4A43F01C
:101F6C00040313626A4B1B6A694A43F00103136250
:101F7C000BE0674B1B6A664A23F001031362644B48
:101F8C001B6A634A23F0040313627B68DB68002B33
:101F9C0015D0FFF769FB38610AE0FFF765FB0246D5
:101FAC003B69D31A41F28832934201D90323ABE047
:101FBC00574B1B6A03F00203002BEED014E0FFF723
:101FCC0053FB38610AE0FFF74FFB02463B69D31A1B
:101FDC0041F28832934201D9032395E04C4B1B6AA2
:101FEC0003F00203002BEED1FB7D012B05D1484BF6
:101FFC00DB69474A23F08053D3617B68DB69002B94
:10200C0000F08180424B5B6803F00C03082B61D01D
:10201C007B68DB69022B46D13F4B00221A60FFF72D
:10202C0023FB386108E0FFF71FFB02463B69D31A1C
:10203C00022B01D9032367E0354B1B6803F00073B7
:10204C00002BF0D17B681B6AB3F5803F08D1304B75
:10205C005B6823F400327B689B682D4913434B600B
:10206C002B4B5B6823F474127B68196A7B685B6A80
:10207C000B43274913434B60274B01221A60FFF790
:10208C00F3FA386108E0FFF7EFFA02463B69D31A1E
:10209C00022B01D9032337E01D4B1B6803F000739F
:1020AC00002BF0D02FE01C4B00221A60FFF7DCFA5B
:1020BC00386108E0FFF7D8FA02463B69D31A022BC5
:1020CC0001D9032320E0124B1B6803F00073002B93
:1020DC00F0D118E07B68DB69012B01D1012313E0FF
:1020EC000B4B5B68FB60FB6803F480327B681B6AFC
:1020FC009A4206D1FB6803F470127B685B6A9A42C1
:10210C0001D0012300E0002318461837BD4680BDDE
:10211C0000100240007000406000424280B584B064
:10212C0000AF786039607B68002B01D10123D0E0CF
:10213C006A4B1B6803F007033A689A4210D9674B45
:10214C001B6823F0070265493B6813430B60634B24
:10215C001B6803F007033A689A4201D00123B8E0E8
:10216C007B681B6803F00203002B20D07B681B6884
:10217C0003F00403002B05D0594B5B68584A43F419
:10218C00E06353607B681B6803F00803002B05D0E9
:10219C00534B5B68524A43F460535360504B5B683B
:1021AC0023F0F0027B689B684D4913434B607B68BE
:1021BC001B6803F00103002B40D07B685B68012B8C
:1021CC0007D1474B1B6803F40033002B15D10123B7
:1021DC007FE07B685B68022B07D1414B1B6803F0E7
:1021EC000073002B09D1012373E03D4B1B6803F0F6
:1021FC000203002B01D101236BE0394B5B6823F008
:10220C0003027B685B68364913434B60FFF72CFA7B
:10221C00F8600AE0FFF728FA0246FB68D31A41F28D
:10222C008832934201D9032353E02D4B5B6803F0B2
:10223C000C027B685B689B009A42EBD1274B1B68B6
:10224C0003F007033A689A4210D2244B1B6823F020
:10225C00070222493B6813430B60204B1B6803F0B9
:10226C0007033A689A4201D0012332E07B681B686D
:10227C0003F00403002B08D0194B5B6823F4E062D5
:10228C007B68DB68164913434B607B681B6803F063
:10229C000803002B09D0124B5B6823F460527B6857
:1022AC001B69DB000E4913434B6000F021F802461A
:1022BC000B4B5B681B0903F00F030A49CB5C22FA3A
:1022CC0003F3094A1360094B1B681846FFF78AF998
:1022DC00002318461037BD4680BD00BF00200240C9
:1022EC00001002402C2C0008540000205800002044
:1022FC0080B487B000AF0023FB600023BB600023D9
:10230C007B6100237B6000233B611E4B5B68FB60A1
:10231C00FB6803F00C03042B02D0082B03D027E03E
:10232C00194B3B6127E0FB689B0C03F00F03174A2A
:10233C00D35C7B60FB6803F48033002B10D0114B13
:10234C005B685B0C03F00103114AD35CBB607B68D8
:10235C000D4A02FB03F2BB68B2FBF3F37B6104E0B2
:10236C007B680C4A02FB03F37B617B693B6102E0F7
:10237C00054B3B6100BF3B6918461C37BD4680BC12
:10238C00704700BF0010024000127A003C2C00087D
:10239C004C2C000800093D0080B485B000AF78607B
:1023AC000A4B1B680A4AA2FB03235B0A7A6802FBEE
:1023BC0003F3FB6000BFFB685A1EFA60002BF9D1D7
:1023CC0000BF00BF1437BD4680BC704754000020CE
:1023DC00D34D621080B582B000AF78607B68002B63
:1023EC0001D1012341E07B6893F83D30DBB2002B37
:1023FC0006D17B68002283F83C207868FFF75AF8F6
:10240C007B68022283F83D207B681A687B68043362
:10241C001946104600F06EFA7B68012283F84620BC
:10242C007B68012283F83E207B68012283F83F20E1
:10243C007B68012283F840207B68012283F84120CD
:10244C007B68012283F842207B68012283F84320B9
:10245C007B68012283F844207B68012283F84520A5
:10246C007B68012283F83D20002318460837BD46BF
:10247C0080BD000080B485B000AF78607B6893F8B5
:10248C003D30DBB2012B01D0012335E07B68022209
:10249C0083F83D207B681B68DA687B681B6842F018
:1024AC000102DA607B681B68164A934209D07B688C
:1024BC001B68B3F1804F04D07B681B68124A9342AF
:1024CC0011D17B681B689B6803F00703FB60FB68FA
:1024DC00062B10D07B681B681A687B681B6842F05F
:1024EC0001021A6007E07B681B681A687B681B682E
:1024FC0042F001021A60002318461437BD4680BC16
:10250C00704700BF002C01400004004080B582B031
:10251C0000AF78607B681B681B6903F00203022B19
:10252C0022D17B681B68DB6803F00203022B1BD1F2
:10253C007B681B686FF002021A617B6801221A77B4
:10254C007B681B689B6903F00303002B03D078683E
:10255C0000F0B4F905E0786800F0A7F9786800F0AD
:10256C00B6F97B6800221A777B681B681B6903F03D
:10257C000403042B22D17B681B68DB6803F0040383
:10258C00042B1BD17B681B686FF004021A617B68FB
:10259C0002221A777B681B689B6903F44073002B3B
:1025AC0003D0786800F08AF905E0786800F07DF9CE
:1025BC00786800F08CF97B6800221A777B681B68BE
:1025CC001B6903F00803082B22D17B681B68DB68AE
:1025DC0003F00803082B1BD17B681B686FF0080203
:1025EC001A617B6804221A777B681B68DB6903F02D
:1025FC000303002B03D0786800F060F905E07868DD
:10260C0000F053F9786800F062F97B6800221A77C1
:10261C007B681B681B6903F01003102B22D17B68AD
:10262C001B68DB6803F01003102B1BD17B681B6845
:10263C006FF010021A617B6808221A777B681B689E
:10264C00DB6903F44073002B03D0786800F036F993
:10265C0005E0786800F029F9786800F038F97B68B3
:10266C0000221A777B681B681B6903F00103012B9E
:10267C000ED17B681B68DB6803F00103012B07D1CB
:10268C007B681B686FF001021A617868FEF768FEC0
:10269C007B681B681B6903F08003802B0ED17B6861
:1026AC001B68DB6803F08003802B07D17B681B68F9
:1026BC006FF080021A61786800F06BFA7B681B6817
:1026CC001B6903F04003402B0ED17B681B68DB6851
:1026DC0003F04003402B07D17B681B686FF040026E
:1026EC001A61786800F0FCF87B681B681B6903F0C2
:1026FC002003202B0ED17B681B68DB6803F02003C2
:10270C00202B07D17B681B686FF020021A61786858
:10271C0000F036FA00BF0837BD4680BD80B584B0E6
:10272C0000AF786039600023FB737B6893F83C3012
:10273C00012B01D10223B4E07B68012283F83C20F9
:10274C007B68022283F83D207B681B689B68BB601A
:10275C00BB6823F07703BB60BB6823F47F43BB608B
:10276C007B681B68BA689A603B681B68B3F5005FAE
:10277C003ED0B3F5005F00F28780B3F5805F00F0C8
:10278C008680B3F5805F7FD8702B1AD0702B7BD8E6
:10279C00602B50D0602B77D8502B3CD0502B73D85B
:1027AC00402B58D0402B6FD8302B64D0302B6BD8AB
:1027BC00202B60D0202B67D8002B5CD0102B5AD04C
:1027CC0062E07B6818683B6899683B685A683B68AC
:1027DC00DB6800F05EF97B681B689B68BB60BB68BC
:1027EC0043F07703BB607B681B68BA689A604FE064
:1027FC007B6818683B6899683B685A683B68DB687B
:10280C0000F047F97B681B689A687B681B6842F488
:10281C0080429A603CE07B6818683B6859683B686A
:10282C00DB681A4600F0BEF87B681B68502118461E
:10283C0000F015F92CE07B6818683B6859683B6818
:10284C00DB681A4600F0DCF87B681B6860211846D0
:10285C0000F005F91CE07B6818683B6859683B6818
:10286C00DB681A4600F09EF87B681B68402118460E
:10287C0000F0F5F80CE07B681A683B681B68194699
:10288C00104600F0ECF803E00123FB7300E000BFFE
:10289C007B68012283F83D207B68002283F83C2072
:1028AC00FB7B18461037BD4680BD80B483B000AFAB
:1028BC00786000BF0C37BD4680BC704780B483B0D5
:1028CC0000AF786000BF0C37BD4680BC704780B449
:1028DC0083B000AF786000BF0C37BD4680BC70473A
:1028EC0080B483B000AF786000BF0C37BD4680BCAD
:1028FC007047000080B485B000AF786039607B68A9
:10290C001B68FB607B68254A934207D07B68B3F158
:10291C00804F03D07B68224A934208D1FB6823F096
:10292C007003FB603B685B68FA681343FB607B6871
:10293C001A4A934207D07B68B3F1804F03D07B686F
:10294C00174A934208D1FB6823F44073FB603B6841
:10295C00DB68FA681343FB60FB6823F080023B687A
:10296C005B691343FB607B68FA681A603B689A6882
:10297C007B68DA623B681A687B689A627B68074AF4
:10298C00934203D13B681A697B681A637B68012206
:10299C005A6100BF1437BD4680BC7047002C014003
:1029AC000004004080B487B000AFF860B9607A6072
:1029BC00FB681B6A7B61FB681B6A23F00102FB68E6
:1029CC001A62FB689B693B613B6923F0F0033B6136
:1029DC007B681B013A6913433B617B6923F00A0353
:1029EC007B617A69BB6813437B61FB683A699A61C6
:1029FC00FB687A691A6200BF1C37BD4680BC704701
:102A0C0080B487B000AFF860B9607A60FB681B6A6D
:102A1C007B61FB681B6A23F01002FB681A62FB687F
:102A2C009B693B613B6923F470433B617B681B03EF
:102A3C003A6913433B617B6923F0A0037B61BB685C
:102A4C001B017A6913437B61FB683A699A61FB68E5
:102A5C007A691A6200BF1C37BD4680BC704780B4CF
:102A6C0085B000AF786039607B689B68FB60FB6861
:102A7C0023F07003FB603A68FB68134343F00703D1
:102A8C00FB607B68FA689A6000BF1437BD4680BC57
:102A9C00704780B487B000AFF860B9607A603B6073
:102AAC00FB689B687B617B6923F47F437B613B689C
:102ABC001A027B681A43BB6813437A6913437B6120
:102ACC00FB687A699A6000BF1C37BD4680BC7047B2
:102ADC0080B485B000AF786039607B6893F83C3087
:102AEC00012B01D1022341E07B68012283F83C20B9
:102AFC007B68022283F83D207B681B685B68FB6067
:102B0C007B681B689B68BB60FB6823F07003FB60F1
:102B1C003B681B68FA681343FB607B681B68FA68A8
:102B2C005A607B681B68144A934209D07B681B6807
:102B3C00B3F1804F04D07B681B68104A93420CD1D0
:102B4C00BB6823F08003BB603B685B68BA681343C7
:102B5C00BB607B681B68BA689A607B68012283F84B
:102B6C003D207B68002283F83C2000231846143754
:102B7C00BD4680BC704700BF002C014000040040E3
:102B8C0080B483B000AF786000BF0C37BD4680BC0A
:102B9C00704780B483B000AF786000BF0C37BD467F
:102BAC0080BC704770B500260C4D0D4C641BA410F6
:102BBC00A64209D100F022F800260A4D0A4C641BEB
:102BCC00A410A64205D170BD55F8043B98470136B8
:102BDC00EEE755F8043B98470136F2E7502C000815
:102BEC00502C0008502C0008542C000803460244BA
:102BFC00934200D1704703F8011BF9E7F8B500BF09
:102C0C00F8BC08BC9E467047F8B500BFF8BC08BCC1
:042C1C009E46704719
:102C200040792430191202780010000000000000E2
:102C3000000000000102030406070809020304055E
:102C4000060708090A0B0C0D0E0F101001020000F8
:042C50003101000846
:042C54000D01000866
:102C5800010000000000000000000000010000006A
:102C6800000000000000000001000000000000005B
:102C7800000000000100000000000000000000004B
:102C88000100000002000000030000000400000032
:102C98000100000001000000050000000200000023
:102CA800030000000024F4001000000001000000F0
:040000050800157961
:00000001FF
